{
  "_format": "hh-sol-artifact-1",
  "contractName": "Transactions",
  "sourceName": "contracts/transactions.sol",
  "abi": [
    {
      "anonymous": false,
      "inputs": [
        {
          "indexed": false,
          "internalType": "address",
          "name": "_from",
          "type": "address"
        },
        {
          "indexed": false,
          "internalType": "address",
          "name": "_to",
          "type": "address"
        },
        {
          "indexed": false,
          "internalType": "uint256",
          "name": "_amount",
          "type": "uint256"
        },
        {
          "indexed": false,
          "internalType": "string",
          "name": "_message",
          "type": "string"
        },
        {
          "indexed": false,
          "internalType": "uint256",
          "name": "timestamp",
          "type": "uint256"
        },
        {
          "indexed": false,
          "internalType": "string",
          "name": "_keyword",
          "type": "string"
        }
      ],
      "name": "Transfer",
      "type": "event"
    },
    {
      "inputs": [],
      "name": "getAllTransactions",
      "outputs": [
        {
          "components": [
            {
              "internalType": "address",
              "name": "sender",
              "type": "address"
            },
            {
              "internalType": "address",
              "name": "receiver",
              "type": "address"
            },
            {
              "internalType": "uint256",
              "name": "amount",
              "type": "uint256"
            },
            {
              "internalType": "string",
              "name": "message",
              "type": "string"
            },
            {
              "internalType": "uint256",
              "name": "timestamp",
              "type": "uint256"
            },
            {
              "internalType": "string",
              "name": "keyword",
              "type": "string"
            }
          ],
          "internalType": "struct Transactions.TransferStruct[]",
          "name": "",
          "type": "tuple[]"
        }
      ],
      "stateMutability": "view",
      "type": "function"
    },
    {
      "inputs": [],
      "name": "getTransactionCount",
      "outputs": [
        {
          "internalType": "uint256",
          "name": "",
          "type": "uint256"
        }
      ],
      "stateMutability": "view",
      "type": "function"
    },
    {
      "inputs": [
        {
          "internalType": "address payable",
          "name": "_receiver",
          "type": "address"
        },
        {
          "internalType": "uint256",
          "name": "_amount",
          "type": "uint256"
        },
        {
          "internalType": "string",
          "name": "_message",
          "type": "string"
        },
        {
          "internalType": "string",
          "name": "_keyword",
          "type": "string"
        }
      ],
      "name": "pushToBlockchain",
      "outputs": [],
      "stateMutability": "nonpayable",
      "type": "function"
    }
  ],
  "bytecode": "0x608060405234801561001057600080fd5b506109fb806100206000396000f3fe608060405234801561001057600080fd5b50600436106100415760003560e01c806327506f53146100465780632e7700f0146100645780633df31dfe14610082575b600080fd5b61004e61009e565b60405161005b9190610681565b60405180910390f35b61006c6100a3565b60405161007991906106a3565b60405180910390f35b61009c600480360381019061009791906103a9565b6100ac565b005b606090565b60008054905090565b60016000808282546100be919061077a565b9250508190555060006040518060c001604052803373ffffffffffffffffffffffffffffffffffffffff1681526020018673ffffffffffffffffffffffffffffffffffffffff168152602001858152602001848152602001428152602001838152509050600181908060018154018082558091505060019003906000526020600020906006020160009091909190915060008201518160000160006101000a81548173ffffffffffffffffffffffffffffffffffffffff021916908373ffffffffffffffffffffffffffffffffffffffff16021790555060208201518160010160006101000a81548173ffffffffffffffffffffffffffffffffffffffff021916908373ffffffffffffffffffffffffffffffffffffffff160217905550604082015181600201556060820151816003019080519060200190610202929190610274565b506080820151816004015560a0820151816005019080519060200190610229929190610274565b5050507f416cfa4330a4565f45c2fd2dd4826a83a37443aba2ce6f79477c7355afac35fa33868686428760405161026596959493929190610612565b60405180910390a15050505050565b82805461028090610896565b90600052602060002090601f0160209004810192826102a257600085556102e9565b82601f106102bb57805160ff19168380011785556102e9565b828001600101855582156102e9579182015b828111156102e85782518255916020019190600101906102cd565b5b5090506102f691906102fa565b5090565b5b808211156103135760008160009055506001016102fb565b5090565b600061032a610325846106e3565b6106be565b90508281526020810184848401111561034257600080fd5b61034d848285610854565b509392505050565b60008135905061036481610997565b92915050565b600082601f83011261037b57600080fd5b813561038b848260208601610317565b91505092915050565b6000813590506103a3816109ae565b92915050565b600080600080608085870312156103bf57600080fd5b60006103cd87828801610355565b94505060206103de87828801610394565b935050604085013567ffffffffffffffff8111156103fb57600080fd5b6104078782880161036a565b925050606085013567ffffffffffffffff81111561042457600080fd5b6104308782880161036a565b91505092959194509250565b60006104488383610564565b905092915050565b6104598161081e565b82525050565b610468816107d0565b82525050565b610477816107d0565b82525050565b600061048882610724565b6104928185610747565b9350836020820285016104a485610714565b8060005b858110156104e057848403895281516104c1858261043c565b94506104cc8361073a565b925060208a019950506001810190506104a8565b50829750879550505050505092915050565b60006104fd8261072f565b6105078185610758565b9350610517818560208601610863565b61052081610986565b840191505092915050565b60006105368261072f565b6105408185610769565b9350610550818560208601610863565b61055981610986565b840191505092915050565b600060c08301600083015161057c600086018261045f565b50602083015161058f602086018261045f565b5060408301516105a260408601826105f4565b50606083015184820360608601526105ba82826104f2565b91505060808301516105cf60808601826105f4565b5060a083015184820360a08601526105e782826104f2565b9150508091505092915050565b6105fd81610814565b82525050565b61060c81610814565b82525050565b600060c082019050610627600083018961046e565b6106346020830188610450565b6106416040830187610603565b8181036060830152610653818661052b565b90506106626080830185610603565b81810360a0830152610674818461052b565b9050979650505050505050565b6000602082019050818103600083015261069b818461047d565b905092915050565b60006020820190506106b86000830184610603565b92915050565b60006106c86106d9565b90506106d482826108c8565b919050565b6000604051905090565b600067ffffffffffffffff8211156106fe576106fd610957565b5b61070782610986565b9050602081019050919050565b6000819050602082019050919050565b600081519050919050565b600081519050919050565b6000602082019050919050565b600082825260208201905092915050565b600082825260208201905092915050565b600082825260208201905092915050565b600061078582610814565b915061079083610814565b9250827fffffffffffffffffffffffffffffffffffffffffffffffffffffffffffffffff038211156107c5576107c46108f9565b5b828201905092915050565b60006107db826107f4565b9050919050565b60006107ed826107f4565b9050919050565b600073ffffffffffffffffffffffffffffffffffffffff82169050919050565b6000819050919050565b600061082982610830565b9050919050565b600061083b82610842565b9050919050565b600061084d826107f4565b9050919050565b82818337600083830152505050565b60005b83811015610881578082015181840152602081019050610866565b83811115610890576000848401525b50505050565b600060028204905060018216806108ae57607f821691505b602082108114156108c2576108c1610928565b5b50919050565b6108d182610986565b810181811067ffffffffffffffff821117156108f0576108ef610957565b5b80604052505050565b7f4e487b7100000000000000000000000000000000000000000000000000000000600052601160045260246000fd5b7f4e487b7100000000000000000000000000000000000000000000000000000000600052602260045260246000fd5b7f4e487b7100000000000000000000000000000000000000000000000000000000600052604160045260246000fd5b6000601f19601f8301169050919050565b6109a0816107e2565b81146109ab57600080fd5b50565b6109b781610814565b81146109c257600080fd5b5056fea264697066735822122027b8384d3b4e9bfecd0cc3571e956262a8b66cef6b5f3d5da55362ceff9ea27964736f6c63430008040033",
  "linkReferences": {},
  "deployedLinkReferences": {}
}